{
  "_format": "hh-sol-artifact-1",
  "contractName": "AnimalCharity",
  "sourceName": "contracts/AnimalCharity.sol",
  "abi": [
    {
      "inputs": [
        {
          "internalType": "string",
          "name": "_name",
          "type": "string"
        },
        {
          "internalType": "string",
          "name": "_symbol",
          "type": "string"
        },
        {
          "internalType": "string",
          "name": "_baseUri",
          "type": "string"
        }
      ],
      "stateMutability": "nonpayable",
      "type": "constructor"
    },
    {
      "inputs": [],
      "name": "ApprovalCallerNotOwnerNorApproved",
      "type": "error"
    },
    {
      "inputs": [],
      "name": "ApprovalQueryForNonexistentToken",
      "type": "error"
    },
    {
      "inputs": [],
      "name": "ApprovalToCurrentOwner",
      "type": "error"
    },
    {
      "inputs": [],
      "name": "ApproveToCaller",
      "type": "error"
    },
    {
      "inputs": [],
      "name": "BalanceQueryForZeroAddress",
      "type": "error"
    },
    {
      "inputs": [],
      "name": "InvalidQueryRange",
      "type": "error"
    },
    {
      "inputs": [],
      "name": "MintToZeroAddress",
      "type": "error"
    },
    {
      "inputs": [],
      "name": "MintZeroQuantity",
      "type": "error"
    },
    {
      "inputs": [],
      "name": "OwnerQueryForNonexistentToken",
      "type": "error"
    },
    {
      "inputs": [],
      "name": "TransferCallerNotOwnerNorApproved",
      "type": "error"
    },
    {
      "inputs": [],
      "name": "TransferFromIncorrectOwner",
      "type": "error"
    },
    {
      "inputs": [],
      "name": "TransferToNonERC721ReceiverImplementer",
      "type": "error"
    },
    {
      "inputs": [],
      "name": "TransferToZeroAddress",
      "type": "error"
    },
    {
      "inputs": [],
      "name": "URIQueryForNonexistentToken",
      "type": "error"
    },
    {
      "anonymous": false,
      "inputs": [
        {
          "indexed": true,
          "internalType": "address",
          "name": "owner",
          "type": "address"
        },
        {
          "indexed": true,
          "internalType": "address",
          "name": "approved",
          "type": "address"
        },
        {
          "indexed": true,
          "internalType": "uint256",
          "name": "tokenId",
          "type": "uint256"
        }
      ],
      "name": "Approval",
      "type": "event"
    },
    {
      "anonymous": false,
      "inputs": [
        {
          "indexed": true,
          "internalType": "address",
          "name": "owner",
          "type": "address"
        },
        {
          "indexed": true,
          "internalType": "address",
          "name": "operator",
          "type": "address"
        },
        {
          "indexed": false,
          "internalType": "bool",
          "name": "approved",
          "type": "bool"
        }
      ],
      "name": "ApprovalForAll",
      "type": "event"
    },
    {
      "anonymous": false,
      "inputs": [
        {
          "indexed": false,
          "internalType": "address",
          "name": "caller",
          "type": "address"
        },
        {
          "indexed": false,
          "internalType": "uint256",
          "name": "tokenId",
          "type": "uint256"
        },
        {
          "indexed": false,
          "internalType": "uint256",
          "name": "level",
          "type": "uint256"
        }
      ],
      "name": "BuyToken",
      "type": "event"
    },
    {
      "anonymous": false,
      "inputs": [
        {
          "indexed": false,
          "internalType": "address",
          "name": "caller",
          "type": "address"
        },
        {
          "indexed": false,
          "internalType": "uint256",
          "name": "tokenId",
          "type": "uint256"
        },
        {
          "indexed": false,
          "internalType": "uint256",
          "name": "level",
          "type": "uint256"
        }
      ],
      "name": "MintToken",
      "type": "event"
    },
    {
      "anonymous": false,
      "inputs": [
        {
          "indexed": true,
          "internalType": "address",
          "name": "previousOwner",
          "type": "address"
        },
        {
          "indexed": true,
          "internalType": "address",
          "name": "newOwner",
          "type": "address"
        }
      ],
      "name": "OwnershipTransferred",
      "type": "event"
    },
    {
      "anonymous": false,
      "inputs": [
        {
          "indexed": false,
          "internalType": "uint256",
          "name": "tokenId",
          "type": "uint256"
        },
        {
          "indexed": false,
          "internalType": "uint256",
          "name": "presentIntent",
          "type": "uint256"
        }
      ],
      "name": "PresentIntent",
      "type": "event"
    },
    {
      "anonymous": false,
      "inputs": [
        {
          "indexed": false,
          "internalType": "uint256",
          "name": "level",
          "type": "uint256"
        },
        {
          "indexed": false,
          "internalType": "uint256",
          "name": "amount",
          "type": "uint256"
        }
      ],
      "name": "SetAmountTotal",
      "type": "event"
    },
    {
      "anonymous": false,
      "inputs": [
        {
          "indexed": false,
          "internalType": "string",
          "name": "newBaseURI",
          "type": "string"
        }
      ],
      "name": "SetBaseURI",
      "type": "event"
    },
    {
      "anonymous": false,
      "inputs": [
        {
          "indexed": false,
          "internalType": "uint256",
          "name": "maxSupply",
          "type": "uint256"
        }
      ],
      "name": "SetMaxSupply",
      "type": "event"
    },
    {
      "anonymous": false,
      "inputs": [
        {
          "indexed": false,
          "internalType": "uint256",
          "name": "level",
          "type": "uint256"
        },
        {
          "indexed": false,
          "internalType": "uint256",
          "name": "price",
          "type": "uint256"
        }
      ],
      "name": "SetTokenLevelPrice",
      "type": "event"
    },
    {
      "anonymous": false,
      "inputs": [
        {
          "indexed": true,
          "internalType": "address",
          "name": "from",
          "type": "address"
        },
        {
          "indexed": true,
          "internalType": "address",
          "name": "to",
          "type": "address"
        },
        {
          "indexed": true,
          "internalType": "uint256",
          "name": "tokenId",
          "type": "uint256"
        }
      ],
      "name": "Transfer",
      "type": "event"
    },
    {
      "anonymous": false,
      "inputs": [
        {
          "indexed": false,
          "internalType": "uint256",
          "name": "amount",
          "type": "uint256"
        }
      ],
      "name": "Withdraw",
      "type": "event"
    },
    {
      "anonymous": false,
      "inputs": [],
      "name": "WithdrawAll",
      "type": "event"
    },
    {
      "inputs": [],
      "name": "LEVEL_ONE",
      "outputs": [
        {
          "internalType": "uint8",
          "name": "",
          "type": "uint8"
        }
      ],
      "stateMutability": "view",
      "type": "function"
    },
    {
      "inputs": [],
      "name": "LEVEL_THREE",
      "outputs": [
        {
          "internalType": "uint8",
          "name": "",
          "type": "uint8"
        }
      ],
      "stateMutability": "view",
      "type": "function"
    },
    {
      "inputs": [],
      "name": "LEVEL_TWO",
      "outputs": [
        {
          "internalType": "uint8",
          "name": "",
          "type": "uint8"
        }
      ],
      "stateMutability": "view",
      "type": "function"
    },
    {
      "inputs": [
        {
          "internalType": "uint8",
          "name": "",
          "type": "uint8"
        }
      ],
      "name": "amountMinted",
      "outputs": [
        {
          "internalType": "uint16",
          "name": "",
          "type": "uint16"
        }
      ],
      "stateMutability": "view",
      "type": "function"
    },
    {
      "inputs": [
        {
          "internalType": "uint8",
          "name": "",
          "type": "uint8"
        }
      ],
      "name": "amountTotal",
      "outputs": [
        {
          "internalType": "uint16",
          "name": "",
          "type": "uint16"
        }
      ],
      "stateMutability": "view",
      "type": "function"
    },
    {
      "inputs": [
        {
          "internalType": "address",
          "name": "to",
          "type": "address"
        },
        {
          "internalType": "uint256",
          "name": "tokenId",
          "type": "uint256"
        }
      ],
      "name": "approve",
      "outputs": [],
      "stateMutability": "nonpayable",
      "type": "function"
    },
    {
      "inputs": [
        {
          "internalType": "address",
          "name": "owner",
          "type": "address"
        }
      ],
      "name": "balanceOf",
      "outputs": [
        {
          "internalType": "uint256",
          "name": "",
          "type": "uint256"
        }
      ],
      "stateMutability": "view",
      "type": "function"
    },
    {
      "inputs": [],
      "name": "baseURI",
      "outputs": [
        {
          "internalType": "string",
          "name": "",
          "type": "string"
        }
      ],
      "stateMutability": "view",
      "type": "function"
    },
    {
      "inputs": [
        {
          "internalType": "address",
          "name": "_to",
          "type": "address"
        },
        {
          "internalType": "uint16",
          "name": "_amount",
          "type": "uint16"
        },
        {
          "internalType": "uint8",
          "name": "_level",
          "type": "uint8"
        }
      ],
      "name": "buyToken",
      "outputs": [],
      "stateMutability": "payable",
      "type": "function"
    },
    {
      "inputs": [
        {
          "internalType": "uint256",
          "name": "tokenId",
          "type": "uint256"
        }
      ],
      "name": "explicitOwnershipOf",
      "outputs": [
        {
          "components": [
            {
              "internalType": "address",
              "name": "addr",
              "type": "address"
            },
            {
              "internalType": "uint64",
              "name": "startTimestamp",
              "type": "uint64"
            },
            {
              "internalType": "bool",
              "name": "burned",
              "type": "bool"
            }
          ],
          "internalType": "struct IERC721A.TokenOwnership",
          "name": "",
          "type": "tuple"
        }
      ],
      "stateMutability": "view",
      "type": "function"
    },
    {
      "inputs": [
        {
          "internalType": "uint256[]",
          "name": "tokenIds",
          "type": "uint256[]"
        }
      ],
      "name": "explicitOwnershipsOf",
      "outputs": [
        {
          "components": [
            {
              "internalType": "address",
              "name": "addr",
              "type": "address"
            },
            {
              "internalType": "uint64",
              "name": "startTimestamp",
              "type": "uint64"
            },
            {
              "internalType": "bool",
              "name": "burned",
              "type": "bool"
            }
          ],
          "internalType": "struct IERC721A.TokenOwnership[]",
          "name": "",
          "type": "tuple[]"
        }
      ],
      "stateMutability": "view",
      "type": "function"
    },
    {
      "inputs": [
        {
          "internalType": "uint256",
          "name": "tokenId",
          "type": "uint256"
        }
      ],
      "name": "getApproved",
      "outputs": [
        {
          "internalType": "address",
          "name": "",
          "type": "address"
        }
      ],
      "stateMutability": "view",
      "type": "function"
    },
    {
      "inputs": [
        {
          "internalType": "uint256",
          "name": "_tokenId",
          "type": "uint256"
        },
        {
          "internalType": "uint256",
          "name": "_presentIntent",
          "type": "uint256"
        }
      ],
      "name": "getMyPresent",
      "outputs": [],
      "stateMutability": "nonpayable",
      "type": "function"
    },
    {
      "inputs": [
        {
          "internalType": "address",
          "name": "owner",
          "type": "address"
        },
        {
          "internalType": "address",
          "name": "operator",
          "type": "address"
        }
      ],
      "name": "isApprovedForAll",
      "outputs": [
        {
          "internalType": "bool",
          "name": "",
          "type": "bool"
        }
      ],
      "stateMutability": "view",
      "type": "function"
    },
    {
      "inputs": [
        {
          "internalType": "address",
          "name": "_to",
          "type": "address"
        },
        {
          "internalType": "uint16",
          "name": "_amount",
          "type": "uint16"
        },
        {
          "internalType": "uint8",
          "name": "_level",
          "type": "uint8"
        }
      ],
      "name": "mintToken",
      "outputs": [],
      "stateMutability": "nonpayable",
      "type": "function"
    },
    {
      "inputs": [],
      "name": "name",
      "outputs": [
        {
          "internalType": "string",
          "name": "",
          "type": "string"
        }
      ],
      "stateMutability": "view",
      "type": "function"
    },
    {
      "inputs": [],
      "name": "owner",
      "outputs": [
        {
          "internalType": "address",
          "name": "",
          "type": "address"
        }
      ],
      "stateMutability": "view",
      "type": "function"
    },
    {
      "inputs": [
        {
          "internalType": "uint256",
          "name": "tokenId",
          "type": "uint256"
        }
      ],
      "name": "ownerOf",
      "outputs": [
        {
          "internalType": "address",
          "name": "",
          "type": "address"
        }
      ],
      "stateMutability": "view",
      "type": "function"
    },
    {
      "inputs": [],
      "name": "pendingWithdrawal",
      "outputs": [
        {
          "internalType": "uint256",
          "name": "",
          "type": "uint256"
        }
      ],
      "stateMutability": "view",
      "type": "function"
    },
    {
      "inputs": [
        {
          "internalType": "uint256",
          "name": "",
          "type": "uint256"
        }
      ],
      "name": "presentIntent",
      "outputs": [
        {
          "internalType": "uint256",
          "name": "",
          "type": "uint256"
        }
      ],
      "stateMutability": "view",
      "type": "function"
    },
    {
      "inputs": [
        {
          "internalType": "uint256",
          "name": "",
          "type": "uint256"
        }
      ],
      "name": "presentIntentUsed",
      "outputs": [
        {
          "internalType": "bool",
          "name": "",
          "type": "bool"
        }
      ],
      "stateMutability": "view",
      "type": "function"
    },
    {
      "inputs": [],
      "name": "renounceOwnership",
      "outputs": [],
      "stateMutability": "nonpayable",
      "type": "function"
    },
    {
      "inputs": [
        {
          "internalType": "address",
          "name": "from",
          "type": "address"
        },
        {
          "internalType": "address",
          "name": "to",
          "type": "address"
        },
        {
          "internalType": "uint256",
          "name": "tokenId",
          "type": "uint256"
        }
      ],
      "name": "safeTransferFrom",
      "outputs": [],
      "stateMutability": "nonpayable",
      "type": "function"
    },
    {
      "inputs": [
        {
          "internalType": "address",
          "name": "from",
          "type": "address"
        },
        {
          "internalType": "address",
          "name": "to",
          "type": "address"
        },
        {
          "internalType": "uint256",
          "name": "tokenId",
          "type": "uint256"
        },
        {
          "internalType": "bytes",
          "name": "_data",
          "type": "bytes"
        }
      ],
      "name": "safeTransferFrom",
      "outputs": [],
      "stateMutability": "nonpayable",
      "type": "function"
    },
    {
      "inputs": [
        {
          "internalType": "uint8",
          "name": "_level",
          "type": "uint8"
        },
        {
          "internalType": "uint16",
          "name": "_amount",
          "type": "uint16"
        }
      ],
      "name": "setAmountTotal",
      "outputs": [],
      "stateMutability": "nonpayable",
      "type": "function"
    },
    {
      "inputs": [
        {
          "internalType": "address",
          "name": "operator",
          "type": "address"
        },
        {
          "internalType": "bool",
          "name": "approved",
          "type": "bool"
        }
      ],
      "name": "setApprovalForAll",
      "outputs": [],
      "stateMutability": "nonpayable",
      "type": "function"
    },
    {
      "inputs": [
        {
          "internalType": "string",
          "name": "_newBaseURI",
          "type": "string"
        }
      ],
      "name": "setBaseURI",
      "outputs": [],
      "stateMutability": "nonpayable",
      "type": "function"
    },
    {
      "inputs": [
        {
          "internalType": "uint8",
          "name": "_level",
          "type": "uint8"
        },
        {
          "internalType": "uint256",
          "name": "_price",
          "type": "uint256"
        }
      ],
      "name": "setTokenLevelPrice",
      "outputs": [],
      "stateMutability": "nonpayable",
      "type": "function"
    },
    {
      "inputs": [
        {
          "internalType": "bytes4",
          "name": "interfaceId",
          "type": "bytes4"
        }
      ],
      "name": "supportsInterface",
      "outputs": [
        {
          "internalType": "bool",
          "name": "",
          "type": "bool"
        }
      ],
      "stateMutability": "view",
      "type": "function"
    },
    {
      "inputs": [],
      "name": "symbol",
      "outputs": [
        {
          "internalType": "string",
          "name": "",
          "type": "string"
        }
      ],
      "stateMutability": "view",
      "type": "function"
    },
    {
      "inputs": [
        {
          "internalType": "uint256",
          "name": "",
          "type": "uint256"
        }
      ],
      "name": "tokenLevel",
      "outputs": [
        {
          "internalType": "uint8",
          "name": "",
          "type": "uint8"
        }
      ],
      "stateMutability": "view",
      "type": "function"
    },
    {
      "inputs": [
        {
          "internalType": "uint8",
          "name": "",
          "type": "uint8"
        }
      ],
      "name": "tokenLevelPrice",
      "outputs": [
        {
          "internalType": "uint256",
          "name": "",
          "type": "uint256"
        }
      ],
      "stateMutability": "view",
      "type": "function"
    },
    {
      "inputs": [
        {
          "internalType": "uint256",
          "name": "",
          "type": "uint256"
        }
      ],
      "name": "tokenTokenIdInLevel",
      "outputs": [
        {
          "internalType": "uint16",
          "name": "",
          "type": "uint16"
        }
      ],
      "stateMutability": "view",
      "type": "function"
    },
    {
      "inputs": [
        {
          "internalType": "uint256",
          "name": "_tokenId",
          "type": "uint256"
        }
      ],
      "name": "tokenURI",
      "outputs": [
        {
          "internalType": "string",
          "name": "",
          "type": "string"
        }
      ],
      "stateMutability": "view",
      "type": "function"
    },
    {
      "inputs": [
        {
          "internalType": "address",
          "name": "owner",
          "type": "address"
        }
      ],
      "name": "tokensOfOwner",
      "outputs": [
        {
          "internalType": "uint256[]",
          "name": "",
          "type": "uint256[]"
        }
      ],
      "stateMutability": "view",
      "type": "function"
    },
    {
      "inputs": [
        {
          "internalType": "address",
          "name": "owner",
          "type": "address"
        },
        {
          "internalType": "uint256",
          "name": "start",
          "type": "uint256"
        },
        {
          "internalType": "uint256",
          "name": "stop",
          "type": "uint256"
        }
      ],
      "name": "tokensOfOwnerIn",
      "outputs": [
        {
          "internalType": "uint256[]",
          "name": "",
          "type": "uint256[]"
        }
      ],
      "stateMutability": "view",
      "type": "function"
    },
    {
      "inputs": [],
      "name": "totalSupply",
      "outputs": [
        {
          "internalType": "uint256",
          "name": "",
          "type": "uint256"
        }
      ],
      "stateMutability": "view",
      "type": "function"
    },
    {
      "inputs": [
        {
          "internalType": "address",
          "name": "from",
          "type": "address"
        },
        {
          "internalType": "address",
          "name": "to",
          "type": "address"
        },
        {
          "internalType": "uint256",
          "name": "tokenId",
          "type": "uint256"
        }
      ],
      "name": "transferFrom",
      "outputs": [],
      "stateMutability": "nonpayable",
      "type": "function"
    },
    {
      "inputs": [
        {
          "internalType": "address",
          "name": "newOwner",
          "type": "address"
        }
      ],
      "name": "transferOwnership",
      "outputs": [],
      "stateMutability": "nonpayable",
      "type": "function"
    },
    {
      "inputs": [
        {
          "internalType": "uint256",
          "name": "_amount",
          "type": "uint256"
        }
      ],
      "name": "withdraw",
      "outputs": [],
      "stateMutability": "nonpayable",
      "type": "function"
    },
    {
      "inputs": [],
      "name": "withdrawAll",
      "outputs": [],
      "stateMutability": "nonpayable",
      "type": "function"
    }
  ],
  "bytecode": "0x60806040526000600955600a805462ffffff1916620302011790553480156200002757600080fd5b5060405162002ef838038062002ef88339810160408190526200004a916200036c565b825183908390620000639060029060208501906200020f565b508051620000799060039060208401906200020f565b505060008055506200008b33620001bd565b7f169f97de0d9a84d840042b17d3c6b9638b3d6fd9024c9eb0c7a306a17b49f88f805461ffff199081166101f4908117909255662386f26fc100007f17bc176d2408558f6e4111feebc3cab4e16b63e967be91cde721f4c8a488b552557fa74ba3945261e09fde15ba3db55005b205e61eeb4ad811ac0faa2b315bffeead8054821661032017905566b1a2bc2ec500007f08037d7b151cc412d25674a4e66b334d9ae9d2e5517a7feaae5cdb828bf1c6285560036000527f45f76dafbbad695564362934e24d72eedc57f9fc1a65f39bca62176cc8296828805490911690911790556011602090815267016345785d8a00007f9bfbaa59f8e10e7868f8b402de9d605a390c45ddaebd8c9de3c6f31e733c87ff558151620001b391600b91908401906200020f565b5050505062000450565b600880546001600160a01b038381166001600160a01b0319831681179093556040519116919082907f8be0079c531659141344cd1fd0a4f28419497f9722a3daafe3b4186f6b6457e090600090a35050565b8280546200021d90620003fd565b90600052602060002090601f0160209004810192826200024157600085556200028c565b82601f106200025c57805160ff19168380011785556200028c565b828001600101855582156200028c579182015b828111156200028c5782518255916020019190600101906200026f565b506200029a9291506200029e565b5090565b5b808211156200029a57600081556001016200029f565b600082601f830112620002c757600080fd5b81516001600160401b0380821115620002e457620002e46200043a565b604051601f8301601f19908116603f011681019082821181831017156200030f576200030f6200043a565b816040528381526020925086838588010111156200032c57600080fd5b600091505b8382101562000350578582018301518183018401529082019062000331565b83821115620003625760008385830101525b9695505050505050565b6000806000606084860312156200038257600080fd5b83516001600160401b03808211156200039a57600080fd5b620003a887838801620002b5565b94506020860151915080821115620003bf57600080fd5b620003cd87838801620002b5565b93506040860151915080821115620003e457600080fd5b50620003f386828701620002b5565b9150509250925092565b600181811c908216806200041257607f821691505b602082108114156200043457634e487b7160e01b600052602260045260246000fd5b50919050565b634e487b7160e01b600052604160045260246000fd5b612a9880620004606000396000f3fe6080604052600436106101d65760003560e01c806301fe03b0146101db57806301ffc9a71461021157806306fdde0314610241578063081812fc14610263578063095ea7b31461029b57806318160ddd146102bd57806321fc674e146102e057806323b872dd146103105780632e1a7d4d1461033057806342842e0e1461035057806355f804b314610370578063569d7676146103905780635bbb2177146103d45780635ccaa7df146104015780636352211e146104325780636c0360eb1461045257806370a0823114610467578063715018a6146104875780637e2888221461049c578063831c789c146104af5780638462151c146104cf578063853828b6146104fc5780638da5cb5b1461051157806395d89b411461052657806399a2557a1461053b5780639a5447201461055b578063a22cb46514610575578063a34961d514610595578063ab8ece8b146105b5578063b2269170146105e5578063b6bb93e214610612578063b88d4fde14610632578063c23dc68f14610652578063c87b56dd1461067f578063d059792d1461069f578063e0571ab6146106bf578063e985e9c5146106ec578063f19f197a1461070c578063f2d2fd981461073d578063f2fde38b14610750578063f972d06214610770575b600080fd5b3480156101e757600080fd5b50600a546101fa90610100900460ff1681565b60405160ff90911681526020015b60405180910390f35b34801561021d57600080fd5b5061023161022c366004612472565b610790565b6040519015158152602001610208565b34801561024d57600080fd5b506102566107e2565b60405161020891906127ea565b34801561026f57600080fd5b5061028361027e3660046124f4565b610874565b6040516001600160a01b039091168152602001610208565b3480156102a757600080fd5b506102bb6102b6366004612369565b6108b8565b005b3480156102c957600080fd5b50600154600054035b604051908152602001610208565b3480156102ec57600080fd5b506102316102fb3660046124f4565b600d6020526000908152604090205460ff1681565b34801561031c57600080fd5b506102bb61032b366004612233565b61098b565b34801561033c57600080fd5b506102bb61034b3660046124f4565b61099b565b34801561035c57600080fd5b506102bb61036b366004612233565b610a13565b34801561037c57600080fd5b506102bb61038b3660046124ac565b610a2e565b34801561039c57600080fd5b506103c16103ab3660046124f4565b60126020526000908152604090205461ffff1681565b60405161ffff9091168152602001610208565b3480156103e057600080fd5b506103f46103ef3660046123c6565b610aa0565b6040516102089190612770565b34801561040d57600080fd5b506103c161041c36600461252f565b600f6020526000908152604090205461ffff1681565b34801561043e57600080fd5b5061028361044d3660046124f4565b610b54565b34801561045e57600080fd5b50610256610b5f565b34801561047357600080fd5b506102d26104823660046121e5565b610bed565b34801561049357600080fd5b506102bb610c3b565b3480156104a857600080fd5b50476102d2565b3480156104bb57600080fd5b506102bb6104ca366004612326565b610c6c565b3480156104db57600080fd5b506104ef6104ea3660046121e5565b610ecd565b60405161020891906127b2565b34801561050857600080fd5b506102bb610fba565b34801561051d57600080fd5b5061028361101d565b34801561053257600080fd5b5061025661102c565b34801561054757600080fd5b506104ef610556366004612393565b61103b565b34801561056757600080fd5b50600a546101fa9060ff1681565b34801561058157600080fd5b506102bb6105903660046122ea565b6111b8565b3480156105a157600080fd5b506102bb6105b036600461254a565b61124e565b3480156105c157600080fd5b506101fa6105d03660046124f4565b60106020526000908152604090205460ff1681565b3480156105f157600080fd5b506102d26106003660046124f4565b600c6020526000908152604090205481565b34801561061e57600080fd5b50600a546101fa9062010000900460ff1681565b34801561063e57600080fd5b506102bb61064d36600461226f565b611314565b34801561065e57600080fd5b5061067261066d3660046124f4565b61135e565b6040516102089190612874565b34801561068b57600080fd5b5061025661069a3660046124f4565b6113a1565b3480156106ab57600080fd5b506102bb6106ba366004612574565b61147f565b3480156106cb57600080fd5b506102d26106da36600461252f565b60116020526000908152604090205481565b3480156106f857600080fd5b50610231610707366004612200565b61152e565b34801561071857600080fd5b506103c161072736600461252f565b600e6020526000908152604090205461ffff1681565b6102bb61074b366004612326565b61155c565b34801561075c57600080fd5b506102bb61076b3660046121e5565b6117e7565b34801561077c57600080fd5b506102bb61078b36600461250d565b611887565b60006301ffc9a760e01b6001600160e01b0319831614806107c157506380ac58cd60e01b6001600160e01b03198316145b806107dc5750635b5e139f60e01b6001600160e01b03198316145b92915050565b6060600280546107f19061296a565b80601f016020809104026020016040519081016040528092919081815260200182805461081d9061296a565b801561086a5780601f1061083f5761010080835404028352916020019161086a565b820191906000526020600020905b81548152906001019060200180831161084d57829003601f168201915b5050505050905090565b600061087f82611a18565b61089c576040516333d1c03960e21b815260040160405180910390fd5b506000908152600660205260409020546001600160a01b031690565b60006108c382611a3f565b9050806001600160a01b0316836001600160a01b031614156108f85760405163250fdee360e21b815260040160405180910390fd5b336001600160a01b0382161461092f57610912813361152e565b61092f576040516367d9dca160e11b815260040160405180910390fd5b60008281526006602052604080822080546001600160a01b0319166001600160a01b0387811691821790925591518593918516917f8c5be1e5ebec7d5bd14f71427d1e84f3dd0314c0f7b2291e5b200ac8c7c3b92591a4505050565b610996838383611aa0565b505050565b336109a461101d565b6001600160a01b0316146109d35760405162461bcd60e51b81526004016109ca9061283f565b60405180910390fd5b6109dc81611c31565b6040518181527f5b6b431d4476a211bb7d41c20d1aab9ae2321deee0d20be3d9fc9b1093fa6e3d906020015b60405180910390a150565b61099683838360405180602001604052806000815250611314565b33610a3761101d565b6001600160a01b031614610a5d5760405162461bcd60e51b81526004016109ca9061283f565b8051610a7090600b90602084019061209b565b507f23c8c9488efebfd474e85a7956de6f39b17c7ab88502d42a623db2d8e382bbaa81604051610a0891906127ea565b80516060906000816001600160401b03811115610abf57610abf612a16565b604051908082528060200260200182016040528015610af857816020015b610ae561211f565b815260200190600190039081610add5790505b50905060005b828114610b4c57610b27858281518110610b1a57610b1a612a00565b602002602001015161135e565b828281518110610b3957610b39612a00565b6020908102919091010152600101610afe565b509392505050565b60006107dc82611a3f565b600b8054610b6c9061296a565b80601f0160208091040260200160405190810160405280929190818152602001828054610b989061296a565b8015610be55780601f10610bba57610100808354040283529160200191610be5565b820191906000526020600020905b815481529060010190602001808311610bc857829003601f168201915b505050505081565b60006001600160a01b038216610c16576040516323d3ad8160e21b815260040160405180910390fd5b506001600160a01b03166000908152600560205260409020546001600160401b031690565b33610c4461101d565b6001600160a01b031614610c6a5760405162461bcd60e51b81526004016109ca9061283f565b565b33610c7561101d565b6001600160a01b031614610c9b5760405162461bcd60e51b81526004016109ca9061283f565b60ff81166000908152600f6020526040902054819061ffff16610cd05760405162461bcd60e51b81526004016109ca906127fd565b60ff82166000908152600e6020908152604080832054600f9092529091205461ffff91821691908116906005908616610d0888610bed565b610d1291906128d8565b1115610d7a5760405162461bcd60e51b815260206004820152603160248201527f416e696d616c436861726974793a20596f752063616e6e6f74206d696e74206d6044820152706f7265207468616e203520746f6b656e7360781b60648201526084016109ca565b610d848282612904565b61ffff168561ffff161115610ddb5760405162461bcd60e51b815260206004820181905260248201527f416e696d616c436861726974793a204e6f20746f6b656e7320746f206d696e7460448201526064016109ca565b60005b8561ffff16811015610eb657610df56001846128b2565b60ff86166000818152600e60209081526040808320805461ffff871661ffff19918216811790925560098054865260108552838620805460ff19169097179096558554855260129093529281902080549092169092179055905490519194507fefe4ea707dd09d37bcd06c781d2b10b39d7cd98a6e0af1318600551fece3a1bb91610e83918a91899061274c565b60405180910390a1600160096000828254610e9e91906128d8565b90915550819050610eae816129a5565b915050610dde565b50610ec5868661ffff16611d18565b505050505050565b60606000806000610edd85610bed565b90506000816001600160401b03811115610ef957610ef9612a16565b604051908082528060200260200182016040528015610f22578160200160208202803683370190505b509050610f2d61211f565b60005b838614610fae57610f4081611de2565b9150816040015115610f5157610fa6565b81516001600160a01b031615610f6657815194505b876001600160a01b0316856001600160a01b03161415610fa65780838780600101985081518110610f9957610f99612a00565b6020026020010181815250505b600101610f30565b50909695505050505050565b33610fc361101d565b6001600160a01b031614610fe95760405162461bcd60e51b81526004016109ca9061283f565b610ff247611c31565b6040517f5a648bc540f9bf9a33d1fe64d284e4a69a88aa95d4c7f8054d4bc85f877dcf4e90600090a1565b6008546001600160a01b031690565b6060600380546107f19061296a565b606081831061105d57604051631960ccad60e11b815260040160405180910390fd5b60008061106960005490565b905080841115611077578093505b600061108287610bed565b9050848610156110a1578585038181101561109b578091505b506110a5565b5060005b6000816001600160401b038111156110bf576110bf612a16565b6040519080825280602002602001820160405280156110e8578160200160208202803683370190505b509050816110fb5793506111b192505050565b60006111068861135e565b905060008160400151611117575080515b885b8881141580156111295750848714155b156111a55761113781611de2565b92508260400151156111485761119d565b82516001600160a01b03161561115d57825191505b8a6001600160a01b0316826001600160a01b0316141561119d578084888060010199508151811061119057611190612a00565b6020026020010181815250505b600101611119565b50505092835250909150505b9392505050565b6001600160a01b0382163314156111e25760405163b06307db60e01b815260040160405180910390fd5b3360008181526007602090815260408083206001600160a01b03871680855290835292819020805460ff191686151590811790915590519081529192917f17307eab39ab6107e8899845ad3d59bd9653f200f220920489ca2b5937696c31910160405180910390a35050565b3361125761101d565b6001600160a01b03161461127d5760405162461bcd60e51b81526004016109ca9061283f565b60ff82166000908152600f6020526040902054829061ffff166112b25760405162461bcd60e51b81526004016109ca906127fd565b60ff83166000818152600f6020908152604091829020805461ffff191661ffff87169081179091558251938452908301527ff17eb52f99e7759b51e8f533ba1b2d2efe39d5c3f7d0c5a2be8d65038471952c91015b60405180910390a1505050565b61131f848484611aa0565b6001600160a01b0383163b156113585761133b84848484611e02565b611358576040516368d2bf6b60e11b815260040160405180910390fd5b50505050565b61136661211f565b61136e61211f565b600054831061137d5792915050565b61138683611de2565b90508060400151156113985792915050565b6111b183611efa565b60606113ac82611a18565b1561143d576000600b80546113c09061296a565b9050116113dc57604051806020016040528060008152506107dc565b600082815260106020526040902054600b906113fa9060ff16611f13565b6000848152601260205260409020546114169061ffff16611f13565b60405160200161142893929190612683565b60405160208183030381529060405292915050565b6000600b805461144c9061296a565b90501161146857604051806020016040528060008152506107dc565b600b60405160200161142891906126db565b919050565b3361148861101d565b6001600160a01b0316146114ae5760405162461bcd60e51b81526004016109ca9061283f565b60ff82166000908152600f6020526040902054829061ffff166114e35760405162461bcd60e51b81526004016109ca906127fd565b60ff8316600081815260116020908152604091829020859055815192835282018490527fdc989d5dea53678a2fd5e6520f22e9c950e7630089b0af6044b1d7766ad2a77f9101611307565b6001600160a01b03918216600090815260076020908152604080832093909416825291909152205460ff1690565b60ff81166000908152600f6020526040902054819061ffff166115915760405162461bcd60e51b81526004016109ca906127fd565b60ff82166000908152600e6020908152604080832054600f90925290912054349161ffff9081169181169060059087166115ca89610bed565b6115d491906128d8565b111561163b5760405162461bcd60e51b815260206004820152603060248201527f416e696d616c436861726974793a20596f752063616e6e6f7420627579206d6f60448201526f7265207468616e203520746f6b656e7360801b60648201526084016109ca565b60ff851660009081526011602052604090205483101561169d5760405162461bcd60e51b815260206004820152601f60248201527f416e696d616c436861726974793a20546f6b656e20636f737473206d6f72650060448201526064016109ca565b8061ffff168261ffff16106116f45760405162461bcd60e51b815260206004820152601f60248201527f416e696d616c436861726974793a204e6f20746f6b656e7320746f206275790060448201526064016109ca565b60005b8661ffff168110156117cf5761170e6001846128b2565b60ff87166000818152600e60209081526040808320805461ffff871661ffff19918216811790925560098054865260108552838620805460ff19169097179096558554855260129093529281902080549092169092179055905490519194507ff6f342132c7de5e5a1e99c8efae544c94731f3ff093f5c3c97c6973d9415cdfb9161179c918b918a9061274c565b60405180910390a16001600960008282546117b791906128d8565b909155508190506117c7816129a5565b9150506116f7565b506117de878761ffff16611d18565b50505050505050565b336117f061101d565b6001600160a01b0316146118165760405162461bcd60e51b81526004016109ca9061283f565b6001600160a01b03811661187b5760405162461bcd60e51b815260206004820152602660248201527f4f776e61626c653a206e6577206f776e657220697320746865207a65726f206160448201526564647265737360d01b60648201526084016109ca565b61188481612010565b50565b338061189284610b54565b6001600160a01b0316146118e35760405162461bcd60e51b815260206004820152601860248201527720b734b6b0b621b430b934ba3c9d102737ba1037bbb732b960411b60448201526064016109ca565b6000828152600d602052604090205460ff16156119555760405162461bcd60e51b815260206004820152602a60248201527f416e696d616c436861726974793a2050726573656e7420696e74656e7420616c6044820152691c9958591e481d5cd95960b21b60648201526084016109ca565b6000838152600c6020526040902054156119bb5760405162461bcd60e51b815260206004820152602160248201527f416e696d616c436861726974793a20546f6b656e20616c7265616479207573656044820152601960fa1b60648201526084016109ca565b6000838152600c60209081526040808320859055848352600d825291829020805460ff1916600117905581518581529081018490527f9957710a195362443f67adca8d39af259e9c71ca8471c93c936282019208d0779101611307565b60008054821080156107dc575050600090815260046020526040902054600160e01b161590565b600081600054811015611a8757600081815260046020526040902054600160e01b8116611a85575b806111b1575060001901600081815260046020526040902054611a67565b505b604051636f96cda160e11b815260040160405180910390fd5b6000611aab82611a3f565b9050836001600160a01b0316816001600160a01b031614611ade5760405162a1148160e81b815260040160405180910390fd5b6000336001600160a01b0386161480611afc5750611afc853361152e565b80611b17575033611b0c84610874565b6001600160a01b0316145b905080611b3757604051632ce44b5f60e11b815260040160405180910390fd5b6001600160a01b038416611b5e57604051633a954ecd60e21b815260040160405180910390fd5b600083815260066020908152604080832080546001600160a01b03191690556001600160a01b038881168452600583528184208054600019019055871683528083208054600101905585835260049091529020600160e11b4260a01b861781179091558216611bfb5760018301600081815260046020526040902054611bf9576000548114611bf95760008181526004602052604090208390555b505b82846001600160a01b0316866001600160a01b0316600080516020612a4383398151915260405160405180910390a45050505050565b60008111611c975760405162461bcd60e51b815260206004820152602d60248201527f576974686472617761626c653a20416d6f756e742068617320746f206265206760448201526c0726561746572207468616e203609c1b60648201526084016109ca565b47811115611ce75760405162461bcd60e51b815260206004820152601e60248201527f576974686472617761626c653a204e6f7420656e6f7567682066756e6473000060448201526064016109ca565b604051339082156108fc029083906000818181858888f19350505050158015611d14573d6000803e3d6000fd5b5050565b6000546001600160a01b038316611d4157604051622e076360e81b815260040160405180910390fd5b81611d5f5760405163b562e8dd60e01b815260040160405180910390fd5b6001600160a01b038316600090815260056020908152604080832080546001600160401b018702019055838352600490915290204260a01b84176001841460e11b179055808083015b6040516001830192906001600160a01b03871690600090600080516020612a43833981519152908290a4808210611da85750600055505050565b611dea61211f565b6000828152600460205260409020546107dc90612062565b604051630a85bd0160e11b81526000906001600160a01b0385169063150b7a0290611e3790339089908890889060040161270f565b602060405180830381600087803b158015611e5157600080fd5b505af1925050508015611e81575060408051601f3d908101601f19168201909252611e7e9181019061248f565b60015b611edc573d808015611eaf576040519150601f19603f3d011682016040523d82523d6000602084013e611eb4565b606091505b508051611ed4576040516368d2bf6b60e11b815260040160405180910390fd5b805181602001fd5b6001600160e01b031916630a85bd0160e11b1490505b949350505050565b611f0261211f565b6107dc611f0e83611a3f565b612062565b606081611f375750506040805180820190915260018152600360fc1b602082015290565b8160005b8115611f615780611f4b816129a5565b9150611f5a9050600a836128f0565b9150611f3b565b6000816001600160401b03811115611f7b57611f7b612a16565b6040519080825280601f01601f191660200182016040528015611fa5576020820181803683370190505b5090505b8415611ef257611fba600183612927565b9150611fc7600a866129c0565b611fd29060306128d8565b60f81b818381518110611fe757611fe7612a00565b60200101906001600160f81b031916908160001a905350612009600a866128f0565b9450611fa9565b600880546001600160a01b038381166001600160a01b0319831681179093556040519116919082907f8be0079c531659141344cd1fd0a4f28419497f9722a3daafe3b4186f6b6457e090600090a35050565b61206a61211f565b6001600160a01b03821681526001600160401b0360a083901c166020820152600160e01b9091161515604082015290565b8280546120a79061296a565b90600052602060002090601f0160209004810192826120c9576000855561210f565b82601f106120e257805160ff191683800117855561210f565b8280016001018555821561210f579182015b8281111561210f5782518255916020019190600101906120f4565b5061211b92915061213f565b5090565b604080516060810182526000808252602082018190529181019190915290565b5b8082111561211b5760008155600101612140565b60006001600160401b0383111561216d5761216d612a16565b612180601f8401601f1916602001612882565b905082815283838301111561219457600080fd5b828260208301376000602084830101529392505050565b80356001600160a01b038116811461147a57600080fd5b803561ffff8116811461147a57600080fd5b803560ff8116811461147a57600080fd5b6000602082840312156121f757600080fd5b6111b1826121ab565b6000806040838503121561221357600080fd5b61221c836121ab565b915061222a602084016121ab565b90509250929050565b60008060006060848603121561224857600080fd5b612251846121ab565b925061225f602085016121ab565b9150604084013590509250925092565b6000806000806080858703121561228557600080fd5b61228e856121ab565b935061229c602086016121ab565b92506040850135915060608501356001600160401b038111156122be57600080fd5b8501601f810187136122cf57600080fd5b6122de87823560208401612154565b91505092959194509250565b600080604083850312156122fd57600080fd5b612306836121ab565b91506020830135801515811461231b57600080fd5b809150509250929050565b60008060006060848603121561233b57600080fd5b612344846121ab565b9250612352602085016121c2565b9150612360604085016121d4565b90509250925092565b6000806040838503121561237c57600080fd5b612385836121ab565b946020939093013593505050565b6000806000606084860312156123a857600080fd5b6123b1846121ab565b95602085013595506040909401359392505050565b600060208083850312156123d957600080fd5b82356001600160401b03808211156123f057600080fd5b818501915085601f83011261240457600080fd5b81358181111561241657612416612a16565b8060051b9150612427848301612882565b8181528481019084860184860187018a101561244257600080fd5b600095505b83861015612465578035835260019590950194918601918601612447565b5098975050505050505050565b60006020828403121561248457600080fd5b81356111b181612a2c565b6000602082840312156124a157600080fd5b81516111b181612a2c565b6000602082840312156124be57600080fd5b81356001600160401b038111156124d457600080fd5b8201601f810184136124e557600080fd5b611ef284823560208401612154565b60006020828403121561250657600080fd5b5035919050565b6000806040838503121561252057600080fd5b50508035926020909101359150565b60006020828403121561254157600080fd5b6111b1826121d4565b6000806040838503121561255d57600080fd5b612566836121d4565b915061222a602084016121c2565b6000806040838503121561258757600080fd5b612385836121d4565b600081518084526125a881602086016020860161293e565b601f01601f19169290920160200192915050565b8054600090600181811c90808316806125d657607f831692505b60208084108214156125f857634e487b7160e01b600052602260045260246000fd5b81801561260c576001811461261d5761264a565b60ff1986168952848901965061264a565b60008881526020902060005b868110156126425781548b820152908501908301612629565b505084890196505b50505050505092915050565b80516001600160a01b031682526020808201516001600160401b0316908301526040908101511515910152565b600061268f82866125bc565b845161269f81836020890161293e565b602f60f81b910190815283516126bc81600184016020880161293e565b64173539b7b760d91b6001929091019182015260060195945050505050565b60006126e782846125bc565b7730b734b6b0b616b1b430b934ba3c96bbb0b4ba173539b7b760411b81526018019392505050565b6001600160a01b038581168252841660208201526040810183905260806060820181905260009061274290830184612590565b9695505050505050565b6001600160a01b03939093168352602083019190915260ff16604082015260600190565b6020808252825182820181905260009190848201906040850190845b81811015610fae5761279f838551612656565b928401926060929092019160010161278c565b6020808252825182820181905260009190848201906040850190845b81811015610fae578351835292840192918401916001016127ce565b6020815260006111b16020830184612590565b60208082526022908201527f416e696d616c436861726974793a204c6576656c20646f65736e2774206578696040820152611cdd60f21b606082015260800190565b6020808252818101527f4f776e61626c653a2063616c6c6572206973206e6f7420746865206f776e6572604082015260600190565b606081016107dc8284612656565b604051601f8201601f191681016001600160401b03811182821017156128aa576128aa612a16565b604052919050565b600061ffff8083168185168083038211156128cf576128cf6129d4565b01949350505050565b600082198211156128eb576128eb6129d4565b500190565b6000826128ff576128ff6129ea565b500490565b600061ffff8381169083168181101561291f5761291f6129d4565b039392505050565b600082821015612939576129396129d4565b500390565b60005b83811015612959578181015183820152602001612941565b838111156113585750506000910152565b600181811c9082168061297e57607f821691505b6020821081141561299f57634e487b7160e01b600052602260045260246000fd5b50919050565b60006000198214156129b9576129b96129d4565b5060010190565b6000826129cf576129cf6129ea565b500690565b634e487b7160e01b600052601160045260246000fd5b634e487b7160e01b600052601260045260246000fd5b634e487b7160e01b600052603260045260246000fd5b634e487b7160e01b600052604160045260246000fd5b6001600160e01b03198116811461188457600080fdfeddf252ad1be2c89b69c2b068fc378daa952ba7f163c4a11628f55a4df523b3efa2646970667358221220fdbbce1ea36e1a8f21b0034b80ed1489fcc85334ca78bc51dd3b44e5c0b781a764736f6c63430008060033",
  "linkReferences": {},
  "deployedLinkReferences": {}
}